{
  "abi": [
    {
      "type": "function",
      "name": "getSenryus",
      "inputs": [],
      "outputs": [
        {
          "name": "",
          "type": "tuple[]",
          "internalType": "struct SenryuGame.Senryu[]",
          "components": [
            {
              "name": "id",
              "type": "uint256",
              "internalType": "uint256"
            },
            {
              "name": "content",
              "type": "string",
              "internalType": "string"
            },
            {
              "name": "author",
              "type": "address",
              "internalType": "address"
            },
            {
              "name": "voteCount",
              "type": "uint256",
              "internalType": "uint256"
            }
          ]
        }
      ],
      "stateMutability": "view"
    },
    {
      "type": "function",
      "name": "hasVoted",
      "inputs": [
        {
          "name": "",
          "type": "address",
          "internalType": "address"
        }
      ],
      "outputs": [
        {
          "name": "",
          "type": "bool",
          "internalType": "bool"
        }
      ],
      "stateMutability": "view"
    },
    {
      "type": "function",
      "name": "nextId",
      "inputs": [],
      "outputs": [
        {
          "name": "",
          "type": "uint256",
          "internalType": "uint256"
        }
      ],
      "stateMutability": "view"
    },
    {
      "type": "function",
      "name": "senryus",
      "inputs": [
        {
          "name": "",
          "type": "uint256",
          "internalType": "uint256"
        }
      ],
      "outputs": [
        {
          "name": "id",
          "type": "uint256",
          "internalType": "uint256"
        },
        {
          "name": "content",
          "type": "string",
          "internalType": "string"
        },
        {
          "name": "author",
          "type": "address",
          "internalType": "address"
        },
        {
          "name": "voteCount",
          "type": "uint256",
          "internalType": "uint256"
        }
      ],
      "stateMutability": "view"
    },
    {
      "type": "function",
      "name": "submitSenryu",
      "inputs": [
        {
          "name": "content",
          "type": "string",
          "internalType": "string"
        }
      ],
      "outputs": [],
      "stateMutability": "nonpayable"
    },
    {
      "type": "function",
      "name": "vote",
      "inputs": [
        {
          "name": "senryuId",
          "type": "uint256",
          "internalType": "uint256"
        }
      ],
      "outputs": [],
      "stateMutability": "nonpayable"
    },
    {
      "type": "event",
      "name": "SenryuSubmitted",
      "inputs": [
        {
          "name": "id",
          "type": "uint256",
          "indexed": false,
          "internalType": "uint256"
        },
        {
          "name": "content",
          "type": "string",
          "indexed": false,
          "internalType": "string"
        },
        {
          "name": "author",
          "type": "address",
          "indexed": false,
          "internalType": "address"
        }
      ],
      "anonymous": false
    },
    {
      "type": "event",
      "name": "Voted",
      "inputs": [
        {
          "name": "senryuId",
          "type": "uint256",
          "indexed": false,
          "internalType": "uint256"
        },
        {
          "name": "voter",
          "type": "address",
          "indexed": false,
          "internalType": "address"
        }
      ],
      "anonymous": false
    }
  ],
  "bytecode": {
    "object": "0x608060405234801561001057600080fd5b5061096b806100206000396000f3fe608060405234801561001057600080fd5b50600436106100625760003560e01c80630121b93f1461006757806307c138fa1461007c57806309eef43e1461009a578063118e7d2f146100cd57806361b8ce8c146100f0578063badb8be914610107575b600080fd5b61007a61007536600461055b565b61011a565b005b61008461024c565b60405161009191906105ba565b60405180910390f35b6100bd6100a8366004610650565b60016020526000908152604090205460ff1681565b6040519015158152602001610091565b6100e06100db36600461055b565b61036a565b6040516100919493929190610680565b6100f960025481565b604051908152602001610091565b61007a6101153660046106cb565b610438565b3360009081526001602052604090205460ff16156101785760405162461bcd60e51b8152602060048201526016602482015275165bdd481a185d9948185b1c9958591e481d9bdd195960521b60448201526064015b60405180910390fd5b60005481106101bd5760405162461bcd60e51b8152602060048201526011602482015270125b9d985b1a590814d95b9c9e5d481251607a1b604482015260640161016f565b600081815481106101d0576101d061077c565b6000918252602082206003600490920201018054916101ee83610792565b909155505033600081815260016020818152604092839020805460ff19169092179091558151848152908101929092527f030b0f8dcd86a031eddb071f91882edeac8173663ba775713b677b42b51be44b910160405180910390a150565b60606000805480602002602001604051908101604052809291908181526020016000905b828210156103615783829060005260206000209060040201604051806080016040529081600082015481526020016001820180546102ad906107b9565b80601f01602080910402602001604051908101604052809291908181526020018280546102d9906107b9565b80156103265780601f106102fb57610100808354040283529160200191610326565b820191906000526020600020905b81548152906001019060200180831161030957829003601f168201915b505050918352505060028201546001600160a01b03166020808301919091526003909201546040909101529082526001929092019101610270565b50505050905090565b6000818154811061037a57600080fd5b6000918252602090912060049091020180546001820180549193509061039f906107b9565b80601f01602080910402602001604051908101604052809291908181526020018280546103cb906107b9565b80156104185780601f106103ed57610100808354040283529160200191610418565b820191906000526020600020905b8154815290600101906020018083116103fb57829003601f168201915b50505050600283015460039093015491926001600160a01b031691905084565b6040805160808101825260025481526020810183815233928201929092526000606082018190528054600181018255908052815160049091027f290decd9548b62a8d60345a988386fc84ba6bc95484008f6362f93160ef3e56381019182559251919290917f290decd9548b62a8d60345a988386fc84ba6bc95484008f6362f93160ef3e564909101906104cc9082610844565b5060408201518160020160006101000a8154816001600160a01b0302191690836001600160a01b031602179055506060820151816003015550507f85973436bd2ebd8420b2600c3d49db4130f495c7f4f419a1b73825324ad60e4d600254823360405161053b93929190610904565b60405180910390a16002805490600061055383610792565b919050555050565b60006020828403121561056d57600080fd5b5035919050565b6000815180845260005b8181101561059a5760208185018101518683018201520161057e565b506000602082860101526020601f19601f83011685010191505092915050565b600060208083018184528085518083526040925060408601915060408160051b87010184880160005b8381101561064257603f19898403018552815160808151855288820151818a87015261061182870182610574565b838a01516001600160a01b0316878b01526060938401519390960192909252505093860193908601906001016105e3565b509098975050505050505050565b60006020828403121561066257600080fd5b81356001600160a01b038116811461067957600080fd5b9392505050565b8481526080602082015260006106996080830186610574565b6001600160a01b03949094166040830152506060015292915050565b634e487b7160e01b600052604160045260246000fd5b6000602082840312156106dd57600080fd5b813567ffffffffffffffff808211156106f557600080fd5b818401915084601f83011261070957600080fd5b81358181111561071b5761071b6106b5565b604051601f8201601f19908116603f01168101908382118183101715610743576107436106b5565b8160405282815287602084870101111561075c57600080fd5b826020860160208301376000928101602001929092525095945050505050565b634e487b7160e01b600052603260045260246000fd5b6000600182016107b257634e487b7160e01b600052601160045260246000fd5b5060010190565b600181811c908216806107cd57607f821691505b6020821081036107ed57634e487b7160e01b600052602260045260246000fd5b50919050565b601f82111561083f576000816000526020600020601f850160051c8101602086101561081c5750805b601f850160051c820191505b8181101561083b57828155600101610828565b5050505b505050565b815167ffffffffffffffff81111561085e5761085e6106b5565b6108728161086c84546107b9565b846107f3565b602080601f8311600181146108a7576000841561088f5750858301515b600019600386901b1c1916600185901b17855561083b565b600085815260208120601f198616915b828110156108d6578886015182559484019460019091019084016108b7565b50858210156108f45787850151600019600388901b60f8161c191681555b5050505050600190811b01905550565b83815260606020820152600061091d6060830185610574565b905060018060a01b038316604083015294935050505056fea2646970667358221220fcd0d92bfd892d36b2c2f5c7b46d70f696248715f1ada09d505ee5af91b58a8f64736f6c63430008180033",
    "linkReferences": {}
  },
  "methodIdentifiers": {
    "getSenryus()": "07c138fa",
    "hasVoted(address)": "09eef43e",
    "nextId()": "61b8ce8c",
    "senryus(uint256)": "118e7d2f",
    "submitSenryu(string)": "badb8be9",
    "vote(uint256)": "0121b93f"
  },
  "id": 25
}